:020000040800F2
:100000003004002025010008850100088501000852
:100010008501000885010008850100080000000036
:100020000000000000000000000000008501000842
:100030008501000800000000850100088501000816
:100040008501000885010008850100088501000878
:100050008501000885010008850100088501000868
:100060008501000885010008850100088501000858
:100070008501000885010008C50A0008650A000816
:1000800085010008850100088501000800000000C6
:1000900000000000000000000000000085010008D2
:1000A0008501000885010008850100088501000818
:1000B0008501000885010008850100088501000808
:1000C00085010008850100088501000885010008F8
:1000D00085010008850100088501000885010008E8
:1000E0008501000885010008850100080000000066
:1000F0000000000000000000000000000000000000
:1001000000000000000000000000000000000000EF
:100110000000000000000000210700088501000821
:100120005FF808F180B582B000AF114B7B60114BD6
:100130003B6007E07A68131D7B603B68191D3960DE
:1001400012681A603B680C4A9342F3D30B480C497F
:100150004FF000028842B8BF40F8042BFADB00F0F1
:1001600015F800F0C5FC00BF0837BD4680BD00BFD4
:10017000E00B00080000002000000020000000202C
:100180003000002080B400AF00BFFDE780B500AFB5
:10019000174B1B68164A43F001031360144B5A684F
:1001A0001349144B13404B60114B1B68104A23F04A
:1001B000847323F4803313600D4B1B680C4A23F4C3
:1001C000802313600A4B5B68094A23F4FE035360E3
:1001D000074B4FF41F029A60054B0022DA6200F0D1
:1001E0000DF8054B4FF000629A6000BF80BD00BF64
:1001F000001002400000FFF800ED00E080B500AF05
:1002000000F002F800BF80BD80B483B000AF0023CF
:100210007B6000233B60304B1B682F4A43F48033E4
:1002200013602D4B1B6803F400333B607B68013384
:100230007B603B68002B03D17B68B3F5A06FF0D1E6
:10024000254B1B6803F40033002B02D001233B60D5
:1002500001E000233B603B68012B37D11E4B1E4A57
:100260005B6853601C4B1C4A5B6853601A4B1A4A0C
:100270005B685360184B5B68174A23F47C13536028
:10028000154B5B68144A43F498135360124B1B6878
:10029000114A43F08073136000BF0F4B1B6803F0DB
:1002A0000073002BF9D00C4B5B680B4A23F003035F
:1002B0005360094B5B68084A43F00203536000BF78
:1002C000054B5B6803F00C03082BF9D100BF0C371A
:1002D000BD4680BC704700BF0010024080B483B0B0
:1002E00000AF0346FB71FB7903F01F03012202FA02
:1002F00003F1054A97F907305B0942F8231000BF64
:100300000C37BD4680BC704700E100E080B485B08A
:1003100000AF0346FB710023FB8102E0FB89013340
:10032000FB81144B1B899BB203F00203002B03D10A
:10033000FB89B3F57A7FF1D30023FB810D4BFA796A
:1003400092B29A8102E0FB890133FB81094B1B8940
:100350009BB203F00103002B03D1FB89B3F57A7F35
:10036000F1D3044B9B899BB2DBB218461437BD46D0
:1003700080BC70470038004080B483B000AF0346B3
:10038000FB71FB7940F6820202FB03F31A460B4B2A
:100390001A600A4B00221A6004E0084B1B68013304
:1003A000064A1360FA79054B1B689A42F5D800BFDC
:1003B00000BF0C37BD4680BC704700BF180000204E
:1003C00080B586B000AF0346FB711E4BDB681D4A4B
:1003D00023F48053D36000237B6102E07B69013307
:1003E0007B617B69002BF9DD5F20FFF78FFFFB79D5
:1003F00003F00F03DBB21846FFF788FFFB791B09F8
:10040000DBB21846FFF782FF00233B6102E03B6945
:1004100001333B613B69002BF9DD0A4BDB68094A7C
:1004200043F48053D3600023FB6002E0FB68013398
:10043000FB60FB68002BF9DD00BF00BF1837BD462D
:1004400080BD00BF000C014080B586B000AF034600
:10045000FB711E4BDB681D4A23F48053D3600023DD
:100460007B6102E07B6901337B617B69002BF9DDF5
:100470001F20FFF74BFFFB7903F00F03DBB2184699
:10048000FFF744FFFB791B09DBB21846FFF73EFF7D
:1004900000233B6102E03B6901333B613B69002B78
:1004A000F9DD0A4BDB68094A23F48053D36000234B
:1004B000FB6002E0FB680133FB60FB68002BF9DDA9
:1004C00000BF00BF1837BD4680BD00BF000C014013
:1004D00080B500AF154BDB69144A43F01003D361BC
:1004E000134B45F6BF521A85114B40F2E7329A85FD
:1004F0000F4B9B899BB20E4A43F001039BB2938141
:100500000B4B1B889BB20A4A43F080039BB21380BB
:100510003620FFF7E3FE064B1B889BB2044A43F0EC
:1005200001039BB2138000BF80BD00BF00100240DA
:100530000010004080B400AF484B9B69474A43F02D
:1005400001039361454BDB69444A43F48043D36123
:10055000424B9B69414A43F01C039361404B5B68EB
:100560003F4A23F00F0353603D4B5B683C4A43F026
:10057000030353603B4B1B683A4A23F070631360DC
:10058000384B1B68374A43F040731360364B5B6847
:10059000354A9BB25360344B5B68334A43F0344373
:1005A00043F433035360304BDB682F4A43F48053EA
:1005B000D3602E4B1B889BB22C4A23F400639BB262
:1005C00013802A4B1B889BB2284A43F080039BB2BE
:1005D0001380264B1B889BB2244A43F400739BB2C2
:1005E0001380224B1B889BB2204A43F480739BB23A
:1005F00013801E4B1B889BB21C4A23F038039BB20E
:1006000013801A4B1B889BB2184A43F004039BB219
:100610001380164B1B889BB2144A23F003039BB232
:100620001380124B9B889BB2104A43F002039BB28B
:1006300093800E4B9B889BB20C4A43F001039BB204
:1006400093800A4B1B889BB2084A43F040039BB23D
:10065000138000BFBD4680BC704700BF0010024041
:100660000008014000100140000C0140003800402B
:1006700080B500AF244B5B69234A43F0010353610B
:10068000224B1B68214A43F0100313601F4B1B6869
:100690001E4A43F0020313601C4B1B681B4A43F0C5
:1006A00080031360194BDB681949184A0B43D36068
:1006B000164B9A681549174B13438B600F20FFF7B1
:1006C0000DFE154B1B68144A43F020031360124BB8
:1006D0001B68114A23F0100313600F4B1B680E4A6E
:1006E00043F0020313600C4B9A680B49094B134308
:1006F0008B60094BDB680949074A0B43D3600E2026
:10070000FFF7ECFD00BF80BD001002405800024022
:10071000000000200C380040440002402C00002063
:1007200080B500AFC04B1B680133BF4A1360802007
:10073000FFF78AFE8020FFF787FEBC4B5F221A700E
:10074000B94B1B68BA4AA2FB0323D90AB94BA3FBD6
:1007500001231A0913465B001344DB00CA1AB64B87
:10076000A3FB0223DB08DBB203F00F03DAB2AF4BCB
:100770005A70AD4B1B68AE4AA2FB0323D90AAD4B9E
:10078000A3FB01231A0913465B001344DB00CA1ABA
:10079000A94BA3FB0223DB0830331B09DBB203F0B8
:1007A0000F03DAB2A14B9A709F4B1B68A04AA2FBC1
:1007B0000323D90A9F4BA3FB01231A0913465B00AD
:1007C0001344DB00CA1A9C4BA3FB0213D9080B4647
:1007D0009B000B445B00D11ACBB203F00F03DAB2DB
:1007E000924BDA70904B1B68914AA2FB0323D90A03
:1007F000904BA3FB01231A0913465B001344DB0053
:10080000CA1A8D4BA3FB0213D9080B469B000B445D
:100810005B00D11A01F130031B09DBB203F00F03B7
:10082000DAB2824B1A71814B0A225A717F4B032232
:100830009A717D4B1B68814AA2FB032359097F4BA8
:10084000A3FB01235A0913461B019B1A9B00CA1ADA
:10085000794BA3FB0223DB08DBB203F00F03DAB210
:10086000724BDA71704B1B68744AA2FB032359095F
:10087000724BA3FB01235A0913461B019B1A9B00D1
:10088000CA1A6D4BA3FB0223DB0830331B09DBB212
:1008900003F00F03DAB2654B1A72634B1B68674AA9
:1008A000A2FB03235909654BA3FB01235A091346F5
:1008B0001B019B1A9B00CA1A5F4BA3FB0213D908AA
:1008C0000B469B000B445B00D11ACBB203F00F0325
:1008D000DAB2564B5A72544B1B68584AA2FB032398
:1008E0005909564BA3FB01235A0913461B019B1AB6
:1008F0009B00CA1A504BA3FB0213D9080B469B005E
:100900000B445B00D11A01F130031B09DBB203F089
:100910000F03DAB2454B9A72444B0A22DA72434B08
:1009200003221A73404B1968444BA3FB01235A0955
:1009300013461B019B1A9B00CA1A3F4BA3FB0223C1
:10094000DB08DBB203F00F03DAB2384B5A73364BD5
:1009500019683A4BA3FB01235A0913461B019B1A42
:100960009B00CA1A344BA3FB0223DB0830331B095C
:10097000DBB203F00F03DAB22C4B9A732A4B1968DF
:100980002E4BA3FB01235A0913461B019B1A9B0004
:10099000CA1A294BA3FB0213D9080B469B000B4430
:1009A0005B00D11ACBB203F00F03DAB21F4BDA733C
:1009B0001D4B1968214BA3FB01235A0913461B0148
:1009C0009B1A9B00CA1A1C4BA3FB0213D9080B46A7
:1009D0009B000B445B00D11A01F130031B09DBB211
:1009E00003F00F03DAB2114B1A74154BDB68144A8B
:1009F00023F48053D360134B5B68124A43F0110316
:100A00005360114B5B68104A43F0110353600D4B68
:100A10001B680C4A43F0010313600B4B1B680A4A26
:100A200043F00103136011E02800002000000020C3
:100A3000C5B3A291ABAAAAAACDCCCCCC8988888810
:100A4000000C01404400024058000240044B1B8A45
:100A50009BB2034A23F001039BB2138200BF80BD07
:100A60000010004080B400AF124B1B68114A23F005
:100A70000103136000BF104B1B899BB203F00203FC
:100A8000002BF8D000BF0C4B1B899BB203F08003F6
:100A9000002BF8D1094BDB68084A43F48053D3603C
:100AA000074B5B68064A43F48033536000BFBD4682
:100AB00080BC70475800024000380040000C0140E4
:100AC0000000024080B400AF074B1B68064A23F0C9
:100AD00001031360054B5B68044A43F48053536081
:100AE00000BFBD4680BC7047440002400000024089
:100AF00080B500AFFFF71EFD0120FFF73DFC374B2F
:100B0000DB68364A43F04003D3600120FFF734FC32
:100B10002A20FFF799FC7120FFF796FC0020FFF7D1
:100B20004FFC2820FFF790FC0820FFF78DFC2A20BF
:100B3000FFF78AFC7920FFF787FCD520FFF784FCBC
:100B40007020FFF781FC7820FFF77EFC0820FFF77C
:100B50007BFC0620FFF778FC7220FFF775FC002075
:100B6000FFF72EFC2A20FFF76FFC7920FFF76CFCC3
:100B7000DA20FFF769FC0020FFF766FCDC20FFF7B6
:100B800063FC0020FFF760FC8120FFF75DFC7F2005
:100B9000FFF75AFCD920FFF757FCF120FFF754FC70
:100BA000DB20FFF751FC4020FFF74EFC7820FFF7D9
:100BB0004BFC2820FFF748FC0120FFF745FC802074
:100BC000FFF742FC0C20FFF73FFC6420FFF7D4FB4B
:100BD000FFF74EFDFFF77CFC00BFFDE70010014072
:0400000508000000EF
:00000001FF
