:020000040800F2
:100000001006002025010008850100088501000870
:100010008501000885010008850100080000000036
:100020000000000000000000000000008501000842
:100030008501000800000000850100088501000816
:100040008501000885010008850100088501000878
:100050008501000885010008D50400088501000815
:100060008501000885010008850100088501000858
:100070008501000885010008850100088501000848
:1000800085010008850100088501000800000000C6
:1000900000000000000000000000000085010008D2
:1000A0008501000885010008850100088501000818
:1000B0008501000885010008850100088501000808
:1000C00085010008850100088501000885010008F8
:1000D00085010008850100088501000885010008E8
:1000E0008501000885010008850100080000000066
:1000F0000000000000000000000000000000000000
:1001000000000000000000000000000000000000EF
:1001100000000000000000008501000885010008C3
:100120005FF808F180B582B000AF114B7B60114BD6
:100130003B6007E07A68131D7B603B68191D3960DE
:1001400012681A603B680C4A9342F3D30B480C497F
:100150004FF000028842B8BF40F8042BFADB00F0F1
:1001600015F800F0F1F900BF0837BD4680BD00BFAB
:10017000882400080000002000000020000000206B
:100180000C02002080B400AF00BFFDE780B500AFD7
:10019000174B1B68164A43F001031360144B5A684F
:1001A0001349144B13404B60114B1B68104A23F04A
:1001B000847323F4803313600D4B1B680C4A23F4C3
:1001C000802313600A4B5B68094A23F4FE035360E3
:1001D000074B4FF41F029A60054B0022DA6200F0D1
:1001E0000DF8054B4FF000629A6000BF80BD00BF64
:1001F000001002400000FFF800ED00E080B500AF05
:1002000000F002F800BF80BD80B483B000AF0023CF
:100210007B6000233B60304B1B682F4A43F48033E4
:1002200013602D4B1B6803F400333B607B68013384
:100230007B603B68002B03D17B68B3F5A06FF0D1E6
:10024000254B1B6803F40033002B02D001233B60D5
:1002500001E000233B603B68012B37D11E4B1E4A57
:100260005B6853601C4B1C4A5B6853601A4B1A4A0C
:100270005B685360184B5B68174A23F47C13536028
:10028000154B5B68144A43F498135360124B1B6878
:10029000114A43F08073136000BF0F4B1B6803F0DB
:1002A0000073002BF9D00C4B5B680B4A23F003035F
:1002B0005360094B5B68084A43F00203536000BF78
:1002C000054B5B6803F00C03082BF9D100BF0C371A
:1002D000BD4680BC704700BF0010024080B483B0B0
:1002E00000AF0346FB71FB7903F01F03012202FA02
:1002F00003F1054A97F907305B0942F8231000BF64
:100300000C37BD4680BC704700E100E080B483B08C
:1003100000AF03463960FB7197F90730002B0BDA09
:100320003B68DAB20C49FB7903F00F03043B12017E
:10033000D2B20B441A7609E03B68DAB2074997F962
:1003400007301201D2B20B4483F8002300BF0C37F0
:10035000BD4680BC704700BF00ED00E000E100E05A
:1003600080B500AF484B9B69474A43F00103936156
:10037000454B9B69444A43F004039361434B1B681C
:10038000424A23F00F131360404B1B683F4A43F06F
:10039000080313603C4BDB693B4A43F00053D361D5
:1003A0003B4B1B683A4A43F480531360384B1B683D
:1003B000374A43F001031360334BDB69324A43F0A1
:1003C0001003D361334B00221A85324B03229A85E6
:1003D000304B9B899BB22F4A43F480739BB293812D
:1003E0002C4B9B889BB22B4A23F070039BB29380CB
:1003F000284B9B889BB2274A43F020039BB29380F3
:10040000214B5B69204A43F001035361224B1B6877
:10041000214A43F4806313601F4B1B681E4A43F458
:10042000807313601C4B1B681B4A43F080031360EE
:10043000194B1B68184A43F020031360164B1B68C6
:10044000154A43F010031360134B1B68124A43F024
:1004500008031360104B4FF480725A600E4B0F4A22
:100460009A600D4B0E4ADA600B4B1B680A4A43F048
:100470000103136001210D20FFF748FF0D20FFF756
:100480002DFF00BF80BD00BF0010024000080140EA
:10049000007400400010004030000240087400402A
:1004A0000C00002080B483B000AF0346FB71FB79E1
:1004B00003F01F03012202FA03F1054A97F90730FE
:1004C0005B0942F8231000BF0C37BD4680BC704763
:1004D00000E100E080B400AF154B9B6803F001031E
:1004E000002B10D0134B1B8C9BB2124A43F4805349
:1004F0009BB21384104B1B889BB20F4A43F001033D
:100500009BB213800AE00B4B1B8C9BB2094A23F46D
:1005100080539BB21384094B01221A70084B5B690C
:10052000074A43F00103536100BFBD4680BC7047DA
:1005300000080140000400400010004008000020B6
:10054000000401400000000080B582B000AF00232D
:100550007B6037E07B685B00184601F07BFB20A3E3
:10056000D3E9002301F0E0FB02460B461046194692
:100570004FF000021C4B01F001FD02460B461046F5
:10058000194600F0B1F84FF00002184B01F016FACE
:1005900002460B46104619464FF00002144B01F07C
:1005A000C3FB02460B461046194601F057FE0346B0
:1005B0003B603B6899B20F4A7B6822F813107B6856
:1005C00001337B607B68FF2BC4DDFFF7C9FE00F0C1
:1005D00013F80620FFF766FF00BFFDE7AFF30080CA
:1005E0008B37328FFC210940000070400000F03F43
:1005F0000000A0400C00002080B400AF344B9B6989
:10060000334A43F001039361314B9B69304A43F015
:10061000100393612E4B9B692D4A43F004039361B1
:100620002C4B5B682B4A43F0B0035360294B5B684B
:10063000284A23F040035360274B1B68264A23F0C7
:1006400007031360244B1B68234A43F0080313601D
:10065000224B9B68214A43F0010393601F4BDB68E8
:100660001E4A43F00103D3601C4B1B681B4A43F036
:10067000010313601A4B1A4A9B689360184B5B681E
:10068000174A43F440635360114BDB69104A43F04F
:100690000203D361134B18221A85124B0A229A8542
:1006A000104B0522A3F840200E4B9B8B9BB20D4AAA
:1006B00043F4C0439BB293830A4B1B889BB2094A05
:1006C00043F001039BB2138000BFBD4680BC70475E
:1006D00000100240001001400008014000040140E9
:1006E000000001400004004030B5224A21F00043E0
:1006F000934287B01CD9204A934205D902460B4643
:1007000001F05AF907B030BD02AA00F019FA00F062
:100710000300012814D0022822D0C0B1DDE904234F
:10072000DDE9020100F02CF801F1004107B030BD15
:10073000002400220023009400F04AF907B030BDE5
:10074000DDE90423DDE9020100F01AF8DAE701240B
:10075000DDE90423DDE90201009400F039F9D1E775
:100760000124DDE90423DDE90201009400F030F901
:10077000DAE700BFFB21E93FFFFFEF7F0000000049
:100780002DE9F04F21F00048B8F1795F06460F4699
:1007900092469B4685B06DD201F060FD002800F0C6
:1007A000ED8032463B463046394601F0BDFA76A32D
:1007B000D3E9002304460D4601F0B6FA74A3D3E949
:1007C000002301F0FBF822462B4601F0ADFA72A39C
:1007D000D3E9002301F0F0F822462B4601F0A4FAF9
:1007E0006FA3D3E9002301F0E9F822462B4601F07C
:1007F0009BFA6DA3D3E9002301F0DEF822462B46D5
:1008000001F092FA6AA3D3E9002301F0D7F8224657
:100810002B4601F089FACDE9000100222046294645
:10082000654B01F081FADDE90023804689462046C8
:10083000294601F079FA44464D468046894652469B
:100840005B463046394601F06FFA02460B46404699
:10085000494601F0B1F802460B462046294601F010
:10086000ABF802460B460020544901F0A5F805B04C
:10087000BDE8F08F02460B4601F056FA42A3D3E9D9
:10088000002304460D4601F04FFA41A3D3E90023AB
:1008900001F094F822462B4601F046FA3EA3D3E934
:1008A000002301F089F822462B4601F03DFA3CA3D3
:1008B000D3E9002301F082F822462B4601F034FAF6
:1008C00039A3D3E9002301F077F822462B4601F043
:1008D0002BFA37A3D3E9002301F070F82B46224608
:1008E00001F022FA364BCDE90001984595D9354BF8
:1008F000002298453AD8A8F5001300202F499046C9
:10090000994601F059F8CDE9020100222046294616
:10091000294B01F009FA42464B4601F04DF8DDE95A
:100920000023804689462046294601F0FDF94446C9
:100930004D468046894652465B463046394601F070
:10094000F3F902460B464046494601F035F80246A7
:100950000B462046294601F02FF802460B46DDE9FA
:10096000020101F029F805B0BDE8F08F164B4FF0F9
:100970000008CDE90223DFF85490C6E700200F49B4
:1009800005B0BDE8F08F00BFD43888BEE9FAA8BD35
:10099000C4B1B4BD9EEE213EAD529C804F7E923ECE
:1009A0009015CB19A001FA3E7751C1166CC1563F84
:1009B0004C5555555555A53F0000E03F0000F03F10
:1009C0003233D33F0000E93F0000E73F0000D23F51
:1009D0002DE9F04F83B0CDE9002321F00043B3F1BE
:1009E000795F04460D4604D201F038FC002800F07F
:1009F000858022462B462046294601F095F9064679
:100A00000F4632463B462046294601F08DF93EA36B
:100A1000D3E9002382468B463046394601F084F9FB
:100A20003BA3D3E9002300F0C7FF32463B4601F069
:100A30007BF939A3D3E9002300F0C0FF32463B46DF
:100A400001F072F936A3D3E9002300F0B5FF324676
:100A50003B4601F069F934A3D3E9002300F0AEFF6F
:100A60000C9B804689469BB3DDE900010022324B96
:100A700001F05AF942464B4680468946504659464F
:100A800001F052F902460B464046494600F094FFF9
:100A900032463B4601F048F9DDE9002300F08CFFC7
:100AA00023A3D3E9002306460F465046594601F0DA
:100AB0003BF902460B463046394600F07FFF0246BE
:100AC0000B462046294600F077FF03B0BDE8F08FC3
:100AD00002460B463046394601F026F914A3D3E905
:100AE000002300F069FF52465B4601F01DF92246E3
:100AF0002B4600F063FF03B0BDE8F08F2046294687
:100B000003B0BDE8F08F00BF7CD5CF5A3AD9E53DA0
:100B1000EB9C2B8AE6E55A3E7DFEB157E31DC73EAE
:100B2000D561C119A0012A3FA6F810111111813F0A
:100B3000495555555555C53F0000E03F00000000A0
:100B40002DE9F04F884B21F000479F4204460D46A7
:100B500093468FB040F29180844B88469F4228D8BC
:100B600077A3D3E90023002940F3A68100F024FFF6
:100B70007F4B04469F420D4600F0908072A3D3E95C
:100B8000002300F019FF02460B4620462946144672
:100B90001D4600F011FF6CA3D3E9002300F00CFF09
:100BA0000126CBE90045CBE9020130460FB0BDE894
:100BB000F08F704B9F4240F28B806F4B9F4264D806
:100BC0004FEA275AAAF21646A7EB06510F4602969D
:100BD000064601F043FB01F03DF802460B46304665
:100BE0003946CDE9082300F0E7FE0022634B01F00F
:100BF0009BF80F46064601F031FB01F02BF8024648
:100C00000B4630463946CDE90A2300F0D5FE0022D6
:100C10005A4B01F089F803244FF000094FF0000A05
:100C2000CDE90C010EAD4A4675E902015346264650
:100C3000013C01F0E1FA0028F5D102245049334685
:100C40000191029A594608A8009400F08BF9B8F176
:100C5000000F0646A9DADBF80400DBF80020DBF819
:100C60000C1000F10043CBE90023DBF8082001F170
:100C70000043CBE90223764297E700220023CBE929
:100C80000045CBE9022300268FE702460B4600F021
:100C900093FECBE90201CBE90001F4E72CA3D3E9F1
:100CA000002300F089FE2CA3D3E9002306460F465B
:100CB00000F082FE04460D4622462B463046394659
:100CC00000F07AFE24A3D3E9002300F075FE67E765
:100CD00000F044F922A3D3E9002304460D4601F0B5
:100CE00023F80022274B00F069FE01F0B7FA064610
:100CF00000F0B0FF02460B46CDE9042310A3D3E970
:100D0000002301F011F802460B462046294600F068
:100D100053FE0DA3D3E9002381468A46DDE9040191
:100D200001F002F81F2ECDE902012FDC164B721ED6
:100D300053F82230BB4229D002460B469AE000BF4E
:100D400000004054FB21F93F3163621A61B4D03D89
:100D50000000601A61B4D03D7370032E8A19A33B62
:100D600083C8C96D305FE43FFB21E93F7BD9024076
:100D7000FB21F93FFB213941FFFFEF7F000070416C
:100D80002C2300080000E03FAC2200083B1507932D
:100D90004846DDE90223514600F00EFEC1F30A5336
:100DA000C3EB1753102B04460D4669DD60A3D3E94E
:100DB0000023DDE9040100F0B7FF04460D4622469A
:100DC0002B464846514600F0F7FD02460B46484682
:100DD000514691469A4600F0EFFD22462B4600F020
:100DE000EBFD55A3D3E9002304460D46DDE90401DC
:100DF00000F09AFF22462B4600F0DEFD02460B462D
:100E000048465146CDE9022300F0D6FD079AC1F3CA
:100E10000A53D31A312B04460D4631DD48A3D3E9DA
:100E20000023DDE9040100F07FFF04460D46224661
:100E30002B464846514600F0BFFD02460B46484649
:100E4000514691469A4600F0B7FD22462B4600F0E7
:100E5000B3FD3DA3D3E9002304460D46DDE90401BB
:100E600000F062FF22462B4600F0A6FD02460B462C
:100E7000CDE902234846514600F09EFD04460D464A
:100E800022462B4648465146CBE9004500F094FDEA
:100E9000DDE9022300F090FDB8F1000FCBE902017B
:100EA000BFF683AE05F10042CBE9004201F10042FA
:100EB000CBE90202764278E600F080FD264B04463C
:100EC0009F420D4618D022A3D3E9002300F076FDFF
:100ED00002460B462046294614461D4600F06CFD8E
:100EE0001BA3D3E9002300F069FD4FF0FF36CBE9E7
:100EF0000045CBE9020158E60DA3D3E9002300F039
:100F00005DFD0DA3D3E9002306460F4600F056FD14
:100F100004460D4622462B463046394600F04CFD2D
:100F200005A3D3E9002300F049FDDEE7AFF300801D
:100F30000000601A61B4D03D7370032E8A19A33B80
:100F40000000002E8A19A33BC14920259A837B39D2
:100F50003163621A61B4D03DFB21F93F21F00043B7
:100F6000194670472DE9F04FADF5197DBE4CA29D95
:100F70009E4654F82540013B12F1140F8246059419
:100F80000B910393C0F24883B849D31E81FB030140
:100F9000DB17C3EBA10308930133A3EB8303DB004F
:100FA000D618089A0EF1FF33D71A059A12EB0309E7
:100FB00021D409F10109B9440DF1800802960024F9
:100FC0004E460025C146DDF88CB2F04608E05BF8DD
:100FD000270000F03FFE0137B742E9E8020108D0E0
:100FE000002FF4DA204629460137B742E9E802012A
:100FF000F6D1C646029E059B002BAAF10803049376
:10100000B8BF4FEACE0737DBDDF80C9003EBCE0814
:101010004B460DF5E07BD9469B4620AA02EBCE0A53
:101020004FEACE07059ACDE906E772440292009690
:10103000039B002BC0F2AA81574600240025049E82
:1010400077E90223F6E9020100F06EFE02460B4644
:101050002046294600F0B2FC464504460D46EFD135
:10106000029B0BF1010B9B45E9E802450AF1080AD6
:10107000DED1DDE906E7009E049B059A03EB070B32
:101080000CAB03EB8203043B09930CAB029203EB22
:101090008207CDF828E0029A98AB03EBC203002A3E
:1010A00053E928452DDD0DF5E07A0DF130090AEB05
:1010B000C2080096069700226D4B2046294600F094
:1010C00033FE01F0CBF800F0C5FD0022694B064667
:1010D0000F4600F029FE02460B462046294600F046
:1010E0006BFC01F0BBF878E9022349F8040B3946A0
:1010F000304600F063FCD04504460D46DBD1009E2F
:10110000069F20462946324600F04AFB00224FF057
:101110007F5304460D4600F007FE00F0C5FB002299
:10112000554B00F001FE02460B462046294600F0D2
:1011300043FC0D46044601F091F8824600F08AFD1A
:1011400002460B462046294600F036FC002E80461B
:10115000894640F39380029BC6F11802581E0CABDF
:1011600053F8203043FA02F101FA02F29B1A0CAA5A
:1011700042F82030C6F1170243FA02F5002D8A44E6
:1011800000F3EB80002200234046494601F034F88A
:10119000002800F04982029B059A93420CDD002250
:1011A0000CA901EB830353F8041DBB4242EA010280
:1011B000F9D1002A40F0F180059B0CAA013B52F8BE
:1011C0002330002B40F0DD800123099A52F8041DE2
:1011D00001330029FAD0029A134402F10108089A57
:1011E000029908EB020A0AF1804AA39A0AF1FF3A2F
:1011F00002EB8A0A0A9A20A80A4400EBC20970AAE4
:1012000002EBC10202920696009307975AF8040F68
:1012100000F020FD039BE9E80201002B20DB4F4694
:1012200000240025049E77E90223F6E9020100F07C
:101230007BFD02460B462046294600F0BFFB5E457B
:1012400004460D46EFD1029B08F10108E3E902458F
:101250000293009B9845D9DDDDE9066702931AE702
:1012600000240025EFE700BF78240008ABAAAA2AD3
:101270000000703E000070410000204064D1029BDD
:101280000CAA013B52F82350ED15002D7FF77AAFE1
:10129000029B0AF1010A002B40F3518200216FF0FA
:1012A0007F4C0C46CDE90089DDF808E00CA80FE082
:1012B00001318E4542F8049C6BDD13680830013122
:1012C000ACEB03038E454FF0010440F8043C0BDD0A
:1012D000024652F8043BACBBC3F18079002BE7D146
:1012E00001318E451046F3DCDDE90089002E0DDD6D
:1012F000012E3BD0022E09D1029B0CA95A1E0CAB29
:1013000053F82230C3F3150341F82230022D7FF445
:1013100039AF42464B460020B24900F04DFB8046B3
:101320008946002C3FF42EAF32460020AD4900F034
:1013300037FA02460B464046494600F03DFB8046E0
:1013400089461FE71046BAE70022A74B00F072FF5C
:10135000002840F04F81054614E7029B0AF1010A7C
:10136000002BD8BF002499DC012EC3D1029B0CA90D
:101370005A1E0CAB53F82230C3F3160341F8223047
:10138000C4E7029B03F10108434628E70024002537
:1013900066E60124DDE90089A8E7029A0CAB541E39
:1013A00053F824300495CDF818A0183E5BB902F12B
:1013B0008043013B0CAA02EB830353F8042D013C4C
:1013C000183E002AF9D032460020864900F0E8F99C
:1013D000002C06460F46C0F2B88104F1010A4FEA1C
:1013E000CA024FF0000893460CAB03EB8A05DFF806
:1013F000FC9170AB03EBCA0A55F8040D00F02AFC0F
:1014000032463B4600F090FC4B466AE902014246F8
:101410003046394600F088FC0CAB9D4206460F462C
:10142000EAD15A464FF00009ABF1080348A970A869
:1014300000EB030AA3460B46CDE907425246CA46D3
:10144000DDF814900391B9F1000FC0F2EA809046E4
:10145000002600240025664F0292009301E05645C5
:1014600010DCF7E90223F8E8020100F05DFC024617
:101470000B462046294600F0A1FA0136B145044644
:101480000D46ECDA029A009B0BF1FF3BBBF1FF3FEC
:10149000E3E802450AF1010AA2F10802D3D1DDE92D
:1014A0000742A29B022B1CDC002B00F3ED8011D124
:1014B00000200021039DAC1874E9022300F07EFA9D
:1014C000AC42F9D1049B13B101F1004319460B9BC7
:1014D000C3E90001069B03F007000DF5197DBDE887
:1014E000F08FA29B032BF5D1002C00F03E81039BD3
:1014F0004FEAC40803EBC405A946D5E90067029585
:101500000094059559E902453046394622462B4656
:1015100000F054FAB246BB4606460F4632463B46FA
:101520002046294600F048FA5B46524600F046FA4B
:10153000C9E9000169E90267039B9945E2D1009C72
:10154000059D012C00F01181D5E90045039BDDF8D4
:10155000089003F1080BCDF80880D84659E90267D6
:101560002046294632463B4600F028FAA246AB46C2
:1015700004460D4622462B463046394600F01CFAFA
:1015800052465B4600F01AFAC9E9000169E90245D2
:10159000C845E3D100200021DDF80880039B08F155
:1015A00008041C4403F1100574E9022300F006FA54
:1015B000A542F9D1DDE94856039BD3E90278049BA3
:1015C000002B40F089800B9BC3E90401C3E900565E
:1015D000C3E90278069B03F007000DF5197DBDE80D
:1015E000F08F00BF0000F03F0000E03F0000703EC1
:1015F00030240008029B0AF1010A002BC8BF022513
:101600003FF74CAE42464B4602250020614900F0B0
:10161000D3F980468946B5E500216FF0170308919C
:10162000BEE4002400252FE7404649467242049557
:10163000CDF818A000F0B4F80022574B8046894638
:1016400000F0F8FD00283DD00022544B40464946AA
:1016500000F06AFB00F002FE054600F0FBFA0022F3
:101660004D4B00F061FB0B4602464946404600F0F8
:10167000A3F900F0F3FD029F0CAB7C1C43F827009C
:10168000183643F824509EE6039B00260027984610
:101690009D18304675E90223394600F08FF945451B
:1016A00006460F46F5D10B460246DDE9480100F03B
:1016B00083F9049B33B30B9D07F10042C5E9006237
:1016C00024BB2FE04046494600F0C8FD029B0CAA0F
:1016D0001C4642F8230076E60B9B2C4606F100459B
:1016E0005D601D461C6008F10043C5E90273069B5E
:1016F00001F10042C5E9040203F007000DF5197D70
:10170000BDE8F08F0B9BC3E9006774B10125DDF8DC
:101710000C800135F8E9022300F050F9AC42F8DA08
:10172000049B13B101F1004319460B9BC3E902016D
:10173000069B03F007000DF5197DBDE8F08F022D23
:101740007FF420AD02460B465FE7A29B022B06DC2E
:10175000002B0DDC7FF4BEAE00200021B2E6A29B80
:10176000032B7FF4B7AE48AB03930020002121E7A1
:10177000049BDDE9480133B100224FF000430B9C8C
:10178000C4E90023CEE7002200230B9CC4E9002318
:10179000CBE700BF0000F03F000070410000703E4A
:1017A0002DE9F0411646C1F30A52074688460B461A
:1017B0006ABB21F00043034327D0354B002200F0E1
:1017C000B3FA344B07469E42884640DB0B46C1F3D2
:1017D0000A52363A4CF250318E4221DC164440F225
:1017E000FE7296421CDC002E28DC16F1350F35DB2C
:1017F00023F0FF4121F4E001363641EA065500228C
:1018000038462946244B00F08FFABDE8F08140F2BB
:10181000FF7C6245DED1024600F0D0F8BDE8F081E1
:1018200017A3D3E900231C464FEAD87565F3DF748C
:1018300021461A4800F078FABDE8F08123F0FF4312
:1018400023F4E003384643EA0651BDE8F0810EA3D5
:10185000D3E9002300F068FABDE8F08108F0004405
:1018600044F0D27141F4B73107A3D3E900230C4807
:1018700041F01F0100F058FAC7E700BFAFF3008046
:101880009C7500883CE4377E59F3F8C21F6EA501B1
:1018900000005043B03CFFFF0000903C9C75008866
:1018A00059F3F8C200000000C1F30A5C2DE9F041D1
:1018B000ACF2FF35132D02460B460C46064632DCD1
:1018C000002D20DBDFF8E0800F4648FA05F801EA3A
:1018D000080C5CEA000C2BD031A3D3E9002300F004
:1018E0006DF80022002300F0AFFC40B1002C03DAB9
:1018F0004FF480132B411F44002627EA0804214699
:101900003046BDE8F08126A3D3E9002300F056F865
:101910000022002300F098FC0028F0D0002C27DBE8
:1019200000263446EBE7332D06DDB5F5806F1CD07D
:1019300010461946BDE8F0814FF0FF37ACF2134C6A
:1019400027FA0CF70742F3D015A3D3E9002300F0E0
:1019500035F80022002300F077FC0028CFD0002CBF
:1019600033460CDB23EA0706C9E700F027F8E1E776
:1019700024F0004426430DD14FF00044BFE7142D5E
:1019800006D00122C5F13405AA401344B342E9D27E
:101990000134E7E70026054CB1E700BFAFF3008054
:1019A0009C7500883CE4377EFFFF0F000000F0BF0D
:1019B00081F0004102E000BF83F0004330B54FEA00
:1019C00041044FEA430594EA050F08BF90EA020F6D
:1019D0001FBF54EA000C55EA020C7FEA645C7FEA00
:1019E000655C00F0E2804FEA5454D4EB5555B8BF23
:1019F0006D420CDD2C4480EA020281EA030382EA94
:101A0000000083EA010180EA020281EA0303362D25
:101A100088BF30BD11F0004F4FEA01314FF4801CF8
:101A20004CEA113102D0404261EB410113F0004F0A
:101A30004FEA03334CEA133302D0524263EB4303C1
:101A400094EA050F00F0A780A4F10104D5F1200E5F
:101A50000DDB02FA0EFC22FA05F2801841F10001BA
:101A600003FA0EF2801843FA05F359410EE0A5F18E
:101A700020050EF1200E012A03FA0EFC28BF4CF0BF
:101A8000020C43FA05F3C01851EBE37101F0004575
:101A900007D54FF0000EDCF1000C7EEB00006EEB82
:101AA0000101B1F5801F1BD3B1F5001F0CD349080C
:101AB0005FEA30004FEA3C0C04F101044FEA445263
:101AC00012F5800F80F09A80BCF1004F08BF5FEAEA
:101AD000500C50F1000041EB045141EA050130BDCA
:101AE0005FEA4C0C404141EB0101013C28BFB1F5DC
:101AF000801FE9D291F0000F04BF01460020B1FA27
:101B000081F308BF2033A3F10B03B3F120020CDAF9
:101B10000C3208DD02F1140CC2F10C0201FA0CF0D7
:101B200021FA02F10CE002F11402D8BFC2F1200C3C
:101B300001FA02F120FA0CFCDCBF41EA0C019040F2
:101B4000E41AA2BF01EB0451294330BD6FEA04043B
:101B50001F3C1CDA0C340EDC04F11404C4F1200226
:101B600020FA04F001FA02F340EA030021FA04F338
:101B700045EA030130BDC4F10C04C4F1200220FA8F
:101B800002F001FA04F340EA0300294630BD21FACD
:101B900004F0294630BD94F0000F83F4801306BF93
:101BA00081F480110134013D4EE77FEA645C18BF87
:101BB0007FEA655C29D094EA050F08BF90EA020F1E
:101BC00005D054EA000C04BF1946104630BD91EA16
:101BD000030F1EBF0021002030BD5FEA545C05D119
:101BE0004000494128BF41F0004130BD14F5800458
:101BF0003CBF01F5801130BD01F0004545F0FE41CC
:101C000041F470014FF0000030BD7FEA645C1ABF00
:101C1000194610467FEA655C1CBF0B46024650EA37
:101C2000013406BF52EA033591EA030F41F4002163
:101C300030BD00BF90F0000F04BF0021704730B5E9
:101C40004FF4806404F132044FF000054FF00001BE
:101C500050E700BF90F0000F04BF0021704730B57F
:101C60004FF4806404F1320410F0004548BF404254
:101C70004FF000013EE700BF42004FEAE2014FEAA9
:101C800031014FEA02701FBF12F07F4393F07F4F84
:101C900081F06051704732F07F4208BF704793F087
:101CA0007F4F04BF41F40021704730B54FF460749A
:101CB00001F0004521F000411CE700BF50EA01029D
:101CC00008BF704730B54FF000050AE050EA010246
:101CD00008BF704730B511F0004502D5404261EBB6
:101CE00041014FF4806404F132045FEA915C3FF4F7
:101CF000D8AE4FF003025FEADC0C18BF03325FEA94
:101D0000DC0C18BF033202EBDC02C2F1200300FA44
:101D100003FC20FA02F001FA03FE40EA0E0021FA69
:101D200002F11444BDE600BF70B54FF0FF0C4CF457
:101D3000E06C1CEA11541DBF1CEA135594EA0C0F09
:101D400095EA0C0F00F0DEF82C4481EA030621EA44
:101D50004C5123EA4C5350EA013518BF52EA03357F
:101D600041F4801143F4801338D0A0FB02CE4FF031
:101D70000005E1FB02E506F00042E0FB03E54FF061
:101D80000006E1FB03569CF0000F18BF4EF0010E59
:101D9000A4F1FF04B6F5007F64F5407404D25FEA55
:101DA0004E0E6D4146EB060642EAC62141EA555108
:101DB0004FEAC52040EA5E504FEACE2EB4F1FD0C4A
:101DC00088BFBCF5E06F1ED8BEF1004F08BF5FEAC8
:101DD000500E50F1000041EB045170BD06F000467A
:101DE00046EA010140EA020081EA0301B4EB5C0427
:101DF000C2BFD4EB0C0541EA045170BD41F480111F
:101E00004FF0000E013C00F3AB8014F1360FDEBF43
:101E1000002001F0004170BDC4F10004203C35DA1F
:101E20000C341BDC04F11404C4F1200500FA05F3A2
:101E300020FA04F001FA05F240EA020001F0004243
:101E400021F0004110EBD37021FA04F642EB0601B9
:101E50005EEA430E08BF20EAD37070BDC4F10C04E3
:101E6000C4F1200500FA04F320FA05F001FA04F2A7
:101E700040EA020001F0004110EBD37041F1000193
:101E80005EEA430E08BF20EAD37070BDC4F120059E
:101E900000FA05F24EEA020E20FA04F301FA05F206
:101EA00043EA020321FA04F001F0004121FA04F2AE
:101EB00020EA020000EBD3705EEA430E08BF20EA7E
:101EC000D37070BD94F0000F0FD101F000464000B8
:101ED00041EB010111F4801F08BF013CF7D041EA3A
:101EE000060195F0000F18BF704703F0004652003E
:101EF00043EB030313F4801F08BF013DF7D043EA0F
:101F00000603704794EA0C0F0CEA135518BF95EAC4
:101F10000C0F0CD050EA410618BF52EA4306D1D14B
:101F200081EA030101F000414FF0000070BD50EA6A
:101F3000410606BF1046194652EA430619D094EAF4
:101F40000C0F02D150EA013613D195EA0C0F05D1DE
:101F500052EA03361CBF104619460AD181EA030132
:101F600001F0004141F0FE4141F470014FF00000EA
:101F700070BD41F0FE4141F4780170BD70B54FF085
:101F8000FF0C4CF4E06C1CEA11541DBF1CEA135505
:101F900094EA0C0F95EA0C0F00F0A7F8A4EB0504E7
:101FA00081EA030E52EA03354FEA013100F08880DE
:101FB0004FEA03334FF0805545EA131343EA1263A7
:101FC0004FEA022245EA111545EA10654FEA00265C
:101FD0000EF000419D4208BF964244F1FD0404F515
:101FE000407402D25B084FEA3202B61A65EB030571
:101FF0005B084FEA32024FF480104FF4002CB6EB2E
:10200000020E75EB030E22BFB61A754640EA0C00AD
:102010005B084FEA3202B6EB020E75EB030E22BFED
:10202000B61A754640EA5C005B084FEA3202B6EB2E
:10203000020E75EB030E22BFB61A754640EA9C00ED
:102040005B084FEA3202B6EB020E75EB030E22BFBD
:10205000B61A754640EADC0055EA060E18D04FEA7B
:10206000051545EA16754FEA06164FEAC30343EA1B
:1020700052734FEAC2025FEA1C1CC0D111F4801FE8
:102080000BD141EA00014FF000004FF0004CB6E7E1
:1020900011F4801F04BF01430020B4F1FD0C88BF80
:1020A000BCF5E06F3FF6AFAEB5EB030C04BFB6EB8B
:1020B000020C5FEA500C50F1000041EB045170BD7E
:1020C0000EF0004E4EEA113114EB5C04C2BFD4EBAB
:1020D0000C0541EA045170BD41F480114FF0000E2F
:1020E000013C90E645EA060E8DE60CEA135594EAAB
:1020F0000C0F08BF95EA0C0F3FF43BAF94EA0C0FAE
:102100000AD150EA01347FF434AF95EA0C0F7FF422
:1021100025AF104619462CE795EA0C0F06D152EA76
:1021200003353FF4FDAE1046194622E750EA41065A
:1021300018BF52EA43067FF4C5AE50EA41047FF46B
:102140000DAF52EA43057FF4EBAE12E74FF0FF3CD0
:1021500006E000BF4FF0010C02E000BF4FF0010CA1
:102160004DF804CD4FEA410C7FEA6C5C4FEA430C1A
:1021700018BF7FEA6C5C1BD001B050EA410C0CBF69
:1021800052EA430C91EA030F02BF90EA020F0020CB
:10219000704710F1000F91EA030F58BF994208BF32
:1021A00090422CBFD8176FEAE37040F001007047EF
:1021B0004FEA410C7FEA6C5C02D150EA013C07D146
:1021C0004FEA430C7FEA6C5CD6D152EA033CD3D091
:1021D0005DF8040B704700BF8446104662468C468B
:1021E0001946634600E000BF01B5FFF7B7FF0028BE
:1021F00048BF10F1000F01BD4DF808EDFFF7F4FFE7
:102200000CBF012000205DF808FB00BF4DF808ED71
:10221000FFF7EAFF34BF012000205DF808FB00BF94
:102220004DF808EDFFF7E0FF94BF012000205DF8B6
:1022300008FB00BF4DF808EDFFF7CEFF94BF01206B
:1022400000205DF808FB00BF4DF808EDFFF7C4FF64
:1022500034BF012000205DF808FB00BF4FEA4102B7
:1022600012F5001215D211D56FF47873B3EB6252E8
:1022700012D94FEAC12343F0004343EA505311F00F
:10228000004F23FA02F018BF404270474FF00000A1
:10229000704750EA013005D111F0004008BF6FF0DF
:1022A000004070474FF00000704700BFFB21F93F2E
:1022B000FB2109407CD91240FB2119407A6A1F405A
:1022C0007CD92240BBFD2540FB2129403A462C40C9
:1022D0007A6A2F405C4731407CD932409C6B344055
:1022E000BBFD3540DB8F3740FB2139401BB43A4002
:1022F0003A463C405AD83D407A6A3F404C7E404086
:102300005C4741406C1042407CD942408CA2434023
:102310009C6B4440AC344540BBFD4540CBC6464079
:10232000DB8F4740EB584840FB21494083F9A2002E
:10233000444E6E00FC291500D1572700DD34F5000E
:1023400062DBC0003C999500419043006351FE0060
:10235000BBDEAB00B761C5003A6E2400D24D42002F
:102360004906E00009EA2E001C92D100EB1DFE0098
:1023700029B11C00E83EA700F535820044BB2E00C1
:102380009CE98400B4267000417E5F00D69139003C
:10239000538339009CF439008B5F840028F9BD0019
:1023A000F81F3B00DEFF97000F980500112FEF008C
:1023B0000A5A8B006D1F6D00CF7E360009CB2700B7
:1023C000464FB7009E663F002DEA5F00BA277500B2
:1023D000E5EBC7003D7BF100F739070092528A0018
:1023E000FB6BEA001FB15F00085D8D0030035600F3
:1023F0007BFC4600F0AB6B0020BCCF0036F49A00AB
:10240000E3A91D005E619100081BE6008599650047
:10241000A0145F008D40680080D8FF0027734D0036
:1024200006063100CA561500C9A873007BE2600099
:102430006B8CC0000000000000000040FB21F93F51
:10244000000000002D44743E000000809846F83CD7
:102450000000006051CC783B00000080831BF03905
:102460000000004020257A38000000802282E336F8
:10247000000000001DF369350200000003000000A9
:0824800004000000060000004A
:0400000508000000EF
:00000001FF
